{"abi":[{"type":"constructor","inputs":[{"name":"_initialMessage","type":"string","internalType":"string"}],"stateMutability":"nonpayable"},{"type":"receive","stateMutability":"payable"},{"type":"function","name":"getBalance","inputs":[],"outputs":[{"name":"","type":"uint256","internalType":"uint256"}],"stateMutability":"view"},{"type":"function","name":"getContractInfo","inputs":[],"outputs":[{"name":"currentMessage","type":"string","internalType":"string"},{"name":"contractOwner","type":"address","internalType":"address"},{"name":"totalUpdates","type":"uint256","internalType":"uint256"},{"name":"contractBalance","type":"uint256","internalType":"uint256"}],"stateMutability":"view"},{"type":"function","name":"getMessage","inputs":[],"outputs":[{"name":"","type":"string","internalType":"string"}],"stateMutability":"view"},{"type":"function","name":"message","inputs":[],"outputs":[{"name":"","type":"string","internalType":"string"}],"stateMutability":"view"},{"type":"function","name":"owner","inputs":[],"outputs":[{"name":"","type":"address","internalType":"address"}],"stateMutability":"view"},{"type":"function","name":"transferOwnership","inputs":[{"name":"newOwner","type":"address","internalType":"address"}],"outputs":[],"stateMutability":"nonpayable"},{"type":"function","name":"updateCount","inputs":[],"outputs":[{"name":"","type":"uint256","internalType":"uint256"}],"stateMutability":"view"},{"type":"function","name":"updateMessage","inputs":[{"name":"_newMessage","type":"string","internalType":"string"}],"outputs":[],"stateMutability":"nonpayable"},{"type":"function","name":"withdraw","inputs":[],"outputs":[],"stateMutability":"nonpayable"},{"type":"event","name":"MessageUpdated","inputs":[{"name":"newMessage","type":"string","indexed":false,"internalType":"string"},{"name":"updatedBy","type":"address","indexed":true,"internalType":"address"},{"name":"timestamp","type":"uint256","indexed":true,"internalType":"uint256"}],"anonymous":false},{"type":"event","name":"OwnershipTransferred","inputs":[{"name":"previousOwner","type":"address","indexed":true,"internalType":"address"},{"name":"newOwner","type":"address","indexed":true,"internalType":"address"}],"anonymous":false}],"bytecode":{"object":"0x608060405234801561000f575f5ffd5b50604051611a23380380611a2383398181016040528101906100319190610229565b805f908161003f9190610480565b503360015f6101000a81548173ffffffffffffffffffffffffffffffffffffffff021916908373ffffffffffffffffffffffffffffffffffffffff1602179055505f600281905550423373ffffffffffffffffffffffffffffffffffffffff167fddbee71def502054f1dcb5e47f357e97a8f8f38cf0140e74d1724adad843aca8836040516100ce9190610597565b60405180910390a3506105b7565b5f604051905090565b5f5ffd5b5f5ffd5b5f5ffd5b5f5ffd5b5f601f19601f8301169050919050565b7f4e487b71000000000000000000000000000000000000000000000000000000005f52604160045260245ffd5b61013b826100f5565b810181811067ffffffffffffffff8211171561015a57610159610105565b5b80604052505050565b5f61016c6100dc565b90506101788282610132565b919050565b5f67ffffffffffffffff82111561019757610196610105565b5b6101a0826100f5565b9050602081019050919050565b8281835e5f83830152505050565b5f6101cd6101c88461017d565b610163565b9050828152602081018484840111156101e9576101e86100f1565b5b6101f48482856101ad565b509392505050565b5f82601f8301126102105761020f6100ed565b5b81516102208482602086016101bb565b91505092915050565b5f6020828403121561023e5761023d6100e5565b5b5f82015167ffffffffffffffff81111561025b5761025a6100e9565b5b610267848285016101fc565b91505092915050565b5f81519050919050565b7f4e487b71000000000000000000000000000000000000000000000000000000005f52602260045260245ffd5b5f60028204905060018216806102be57607f821691505b6020821081036102d1576102d061027a565b5b50919050565b5f819050815f5260205f209050919050565b5f6020601f8301049050919050565b5f82821b905092915050565b5f600883026103337fffffffffffffffffffffffffffffffffffffffffffffffffffffffffffffffff826102f8565b61033d86836102f8565b95508019841693508086168417925050509392505050565b5f819050919050565b5f819050919050565b5f61038161037c61037784610355565b61035e565b610355565b9050919050565b5f819050919050565b61039a83610367565b6103ae6103a682610388565b848454610304565b825550505050565b5f5f905090565b6103c56103b6565b6103d0818484610391565b505050565b5b818110156103f3576103e85f826103bd565b6001810190506103d6565b5050565b601f82111561043857610409816102d7565b610412846102e9565b81016020851015610421578190505b61043561042d856102e9565b8301826103d5565b50505b505050565b5f82821c905092915050565b5f6104585f198460080261043d565b1980831691505092915050565b5f6104708383610449565b9150826002028217905092915050565b61048982610270565b67ffffffffffffffff8111156104a2576104a1610105565b5b6104ac82546102a7565b6104b78282856103f7565b5f60209050601f8311600181146104e8575f84156104d6578287015190505b6104e08582610465565b865550610547565b601f1984166104f6866102d7565b5f5b8281101561051d578489015182556001820191506020850194506020810190506104f8565b8683101561053a5784890151610536601f891682610449565b8355505b6001600288020188555050505b505050505050565b5f82825260208201905092915050565b5f61056982610270565b610573818561054f565b93506105838185602086016101ad565b61058c816100f5565b840191505092915050565b5f6020820190508181035f8301526105af818461055f565b905092915050565b61145f806105c45f395ff3fe608060405260043610610089575f3560e01c80637cc1f867116100585780637cc1f867146101265780638da5cb5b14610153578063ce6d41de1461017d578063e21f37ce146101a7578063f2fde38b146101d157610090565b806312065fe0146100945780631923be24146100be5780633ccfd60b146100e657806369b4ecc9146100fc57610090565b3661009057005b5f5ffd5b34801561009f575f5ffd5b506100a86101f9565b6040516100b591906109a2565b60405180910390f35b3480156100c9575f5ffd5b506100e460048036038101906100df9190610b08565b610200565b005b3480156100f1575f5ffd5b506100fa610390565b005b348015610107575f5ffd5b50610110610532565b60405161011d91906109a2565b60405180910390f35b348015610131575f5ffd5b5061013a610538565b60405161014a9493929190610bee565b60405180910390f35b34801561015e575f5ffd5b506101676105fc565b6040516101749190610c38565b60405180910390f35b348015610188575f5ffd5b50610191610621565b60405161019e9190610c51565b60405180910390f35b3480156101b2575f5ffd5b506101bb6106b0565b6040516101c89190610c51565b60405180910390f35b3480156101dc575f5ffd5b506101f760048036038101906101f29190610c9b565b61073b565b005b5f47905090565b60015f9054906101000a900473ffffffffffffffffffffffffffffffffffffffff1673ffffffffffffffffffffffffffffffffffffffff163373ffffffffffffffffffffffffffffffffffffffff161461028f576040517f08c379a000000000000000000000000000000000000000000000000000000000815260040161028690610d36565b60405180910390fd5b5f8151116102d2576040517f08c379a00000000000000000000000000000000000000000000000000000000081526004016102c990610dc4565b60405180910390fd5b61011881511115610318576040517f08c379a000000000000000000000000000000000000000000000000000000000815260040161030f90610e52565b60405180910390fd5b805f9081610326919061106d565b5060025f81548092919061033990611169565b9190505550423373ffffffffffffffffffffffffffffffffffffffff167fddbee71def502054f1dcb5e47f357e97a8f8f38cf0140e74d1724adad843aca8836040516103859190610c51565b60405180910390a350565b60015f9054906101000a900473ffffffffffffffffffffffffffffffffffffffff1673ffffffffffffffffffffffffffffffffffffffff163373ffffffffffffffffffffffffffffffffffffffff161461041f576040517f08c379a000000000000000000000000000000000000000000000000000000000815260040161041690610d36565b60405180910390fd5b5f4790505f8111610465576040517f08c379a000000000000000000000000000000000000000000000000000000000815260040161045c90611220565b60405180910390fd5b5f60015f9054906101000a900473ffffffffffffffffffffffffffffffffffffffff1673ffffffffffffffffffffffffffffffffffffffff16826040516104ab9061126b565b5f6040518083038185875af1925050503d805f81146104e5576040519150601f19603f3d011682016040523d82523d5f602084013e6104ea565b606091505b505090508061052e576040517f08c379a0000000000000000000000000000000000000000000000000000000008152600401610525906112ef565b60405180910390fd5b5050565b60025481565b60605f5f5f5f60015f9054906101000a900473ffffffffffffffffffffffffffffffffffffffff166002544783805461057090610e9d565b80601f016020809104026020016040519081016040528092919081815260200182805461059c90610e9d565b80156105e75780601f106105be576101008083540402835291602001916105e7565b820191905f5260205f20905b8154815290600101906020018083116105ca57829003601f168201915b50505050509350935093509350935090919293565b60015f9054906101000a900473ffffffffffffffffffffffffffffffffffffffff1681565b60605f805461062f90610e9d565b80601f016020809104026020016040519081016040528092919081815260200182805461065b90610e9d565b80156106a65780601f1061067d576101008083540402835291602001916106a6565b820191905f5260205f20905b81548152906001019060200180831161068957829003601f168201915b5050505050905090565b5f80546106bc90610e9d565b80601f01602080910402602001604051908101604052809291908181526020018280546106e890610e9d565b80156107335780601f1061070a57610100808354040283529160200191610733565b820191905f5260205f20905b81548152906001019060200180831161071657829003601f168201915b505050505081565b60015f9054906101000a900473ffffffffffffffffffffffffffffffffffffffff1673ffffffffffffffffffffffffffffffffffffffff163373ffffffffffffffffffffffffffffffffffffffff16146107ca576040517f08c379a00000000000000000000000000000000000000000000000000000000081526004016107c190610d36565b60405180910390fd5b5f73ffffffffffffffffffffffffffffffffffffffff168173ffffffffffffffffffffffffffffffffffffffff1603610838576040517f08c379a000000000000000000000000000000000000000000000000000000000815260040161082f9061137d565b60405180910390fd5b60015f9054906101000a900473ffffffffffffffffffffffffffffffffffffffff1673ffffffffffffffffffffffffffffffffffffffff168173ffffffffffffffffffffffffffffffffffffffff16036108c7576040517f08c379a00000000000000000000000000000000000000000000000000000000081526004016108be9061140b565b60405180910390fd5b5f60015f9054906101000a900473ffffffffffffffffffffffffffffffffffffffff1690508160015f6101000a81548173ffffffffffffffffffffffffffffffffffffffff021916908373ffffffffffffffffffffffffffffffffffffffff1602179055508173ffffffffffffffffffffffffffffffffffffffff168173ffffffffffffffffffffffffffffffffffffffff167f8be0079c531659141344cd1fd0a4f28419497f9722a3daafe3b4186f6b6457e060405160405180910390a35050565b5f819050919050565b61099c8161098a565b82525050565b5f6020820190506109b55f830184610993565b92915050565b5f604051905090565b5f5ffd5b5f5ffd5b5f5ffd5b5f5ffd5b5f601f19601f8301169050919050565b7f4e487b71000000000000000000000000000000000000000000000000000000005f52604160045260245ffd5b610a1a826109d4565b810181811067ffffffffffffffff82111715610a3957610a386109e4565b5b80604052505050565b5f610a4b6109bb565b9050610a578282610a11565b919050565b5f67ffffffffffffffff821115610a7657610a756109e4565b5b610a7f826109d4565b9050602081019050919050565b828183375f83830152505050565b5f610aac610aa784610a5c565b610a42565b905082815260208101848484011115610ac857610ac76109d0565b5b610ad3848285610a8c565b509392505050565b5f82601f830112610aef57610aee6109cc565b5b8135610aff848260208601610a9a565b91505092915050565b5f60208284031215610b1d57610b1c6109c4565b5b5f82013567ffffffffffffffff811115610b3a57610b396109c8565b5b610b4684828501610adb565b91505092915050565b5f81519050919050565b5f82825260208201905092915050565b8281835e5f83830152505050565b5f610b8182610b4f565b610b8b8185610b59565b9350610b9b818560208601610b69565b610ba4816109d4565b840191505092915050565b5f73ffffffffffffffffffffffffffffffffffffffff82169050919050565b5f610bd882610baf565b9050919050565b610be881610bce565b82525050565b5f6080820190508181035f830152610c068187610b77565b9050610c156020830186610bdf565b610c226040830185610993565b610c2f6060830184610993565b95945050505050565b5f602082019050610c4b5f830184610bdf565b92915050565b5f6020820190508181035f830152610c698184610b77565b905092915050565b610c7a81610bce565b8114610c84575f5ffd5b50565b5f81359050610c9581610c71565b92915050565b5f60208284031215610cb057610caf6109c4565b5b5f610cbd84828501610c87565b91505092915050565b7f48656c6c6f426c6f636b636861696e3a204f6e6c79206f776e65722063616e205f8201527f63616c6c20746869732066756e6374696f6e0000000000000000000000000000602082015250565b5f610d20603283610b59565b9150610d2b82610cc6565b604082019050919050565b5f6020820190508181035f830152610d4d81610d14565b9050919050565b7f48656c6c6f426c6f636b636861696e3a204d6573736167652063616e6e6f74205f8201527f626520656d707479000000000000000000000000000000000000000000000000602082015250565b5f610dae602883610b59565b9150610db982610d54565b604082019050919050565b5f6020820190508181035f830152610ddb81610da2565b9050919050565b7f48656c6c6f426c6f636b636861696e3a204d65737361676520746f6f206c6f6e5f8201527f6720286d61782032383020636861727329000000000000000000000000000000602082015250565b5f610e3c603183610b59565b9150610e4782610de2565b604082019050919050565b5f6020820190508181035f830152610e6981610e30565b9050919050565b7f4e487b71000000000000000000000000000000000000000000000000000000005f52602260045260245ffd5b5f6002820490506001821680610eb457607f821691505b602082108103610ec757610ec6610e70565b5b50919050565b5f819050815f5260205f209050919050565b5f6020601f8301049050919050565b5f82821b905092915050565b5f60088302610f297fffffffffffffffffffffffffffffffffffffffffffffffffffffffffffffffff82610eee565b610f338683610eee565b95508019841693508086168417925050509392505050565b5f819050919050565b5f610f6e610f69610f648461098a565b610f4b565b61098a565b9050919050565b5f819050919050565b610f8783610f54565b610f9b610f9382610f75565b848454610efa565b825550505050565b5f5f905090565b610fb2610fa3565b610fbd818484610f7e565b505050565b5b81811015610fe057610fd55f82610faa565b600181019050610fc3565b5050565b601f82111561102557610ff681610ecd565b610fff84610edf565b8101602085101561100e578190505b61102261101a85610edf565b830182610fc2565b50505b505050565b5f82821c905092915050565b5f6110455f198460080261102a565b1980831691505092915050565b5f61105d8383611036565b9150826002028217905092915050565b61107682610b4f565b67ffffffffffffffff81111561108f5761108e6109e4565b5b6110998254610e9d565b6110a4828285610fe4565b5f60209050601f8311600181146110d5575f84156110c3578287015190505b6110cd8582611052565b865550611134565b601f1984166110e386610ecd565b5f5b8281101561110a578489015182556001820191506020850194506020810190506110e5565b868310156111275784890151611123601f891682611036565b8355505b6001600288020188555050505b505050505050565b7f4e487b71000000000000000000000000000000000000000000000000000000005f52601160045260245ffd5b5f6111738261098a565b91507fffffffffffffffffffffffffffffffffffffffffffffffffffffffffffffffff82036111a5576111a461113c565b5b600182019050919050565b7f48656c6c6f426c6f636b636861696e3a204e6f2045544820746f2077697468645f8201527f7261770000000000000000000000000000000000000000000000000000000000602082015250565b5f61120a602383610b59565b9150611215826111b0565b604082019050919050565b5f6020820190508181035f830152611237816111fe565b9050919050565b5f81905092915050565b50565b5f6112565f8361123e565b915061126182611248565b5f82019050919050565b5f6112758261124b565b9150819050919050565b7f48656c6c6f426c6f636b636861696e3a205769746864726177616c206661696c5f8201527f6564000000000000000000000000000000000000000000000000000000000000602082015250565b5f6112d9602283610b59565b91506112e48261127f565b604082019050919050565b5f6020820190508181035f830152611306816112cd565b9050919050565b7f48656c6c6f426c6f636b636861696e3a204e6577206f776e65722063616e6e6f5f8201527f74206265207a65726f2061646472657373000000000000000000000000000000602082015250565b5f611367603183610b59565b91506113728261130d565b604082019050919050565b5f6020820190508181035f8301526113948161135b565b9050919050565b7f48656c6c6f426c6f636b636861696e3a204e6577206f776e6572206d757374205f8201527f626520646966666572656e742066726f6d2063757272656e74206f776e657200602082015250565b5f6113f5603f83610b59565b91506114008261139b565b604082019050919050565b5f6020820190508181035f830152611422816113e9565b905091905056fea2646970667358221220d7542e12ca3f6e5263541e5c97734ac7090af00e18b1efb1079f76be29cddd4264736f6c634300081e0033","linkReferences":{}},"methodIdentifiers":{"getBalance()":"12065fe0","getContractInfo()":"7cc1f867","getMessage()":"ce6d41de","message()":"e21f37ce","owner()":"8da5cb5b","transferOwnership(address)":"f2fde38b","updateCount()":"69b4ecc9","updateMessage(string)":"1923be24","withdraw()":"3ccfd60b"},"id":22}